:1000000080270020115300008FB70000C952000064
:10001000C9520000C9520000C9520000000000008F
:10002000000000000000000000000000B5430000D8
:1000300011010000000000004D430000C952000003
:10004000994400009944000099440000994400003C
:10005000994400009944000099440000994400002C
:10006000994400009944000099440000994400001C
:10007000994400009944000099440000994400000C
:1000800099440000994400009944000099440000FC
:1000900099440000994400009944000099440000EC
:1000A00099440000994400009944000099440000DC
:1000B00099440000994400009944000099440000CC
:1000C00099440000994400009944000099440000BC
:1000D00099440000994400009944000099440000AC
:1000E000994400009944000099440000994400009C
:1000F000994400009944000099440000994400008C
:100100004A4C494E4B4D4F4E48414E444C4552008F
:1001100000B50CF0D8FC5DF804EB134B02E0586816
:100120000003FCD4586840F40020586000B50CF07F
:10013000CBFC5DF804EB0C4B5868000DF6D2186848
:10014000010A0006000E002812D0022818D002D39F
:10015000032814D0E6E7586820F40020586000B562
:100160000CF0B0FC00BD00BFF8ED00E088ED00E051
:1001700064201860586840F400205860CFE77DE0A4
:100180005FEADE022CBFEFF30982EFF30882042955
:1001900002D252F821006BE0052901D2204667E027
:1001A000062901D2284663E0072901D230465FE0E4
:1001B000082901D238465BE0092901D2404657E0C0
:1001C0000A2901D2484653E00B2901D250464FE09C
:1001D0000C2901D258464BE00E2901D2106947E0A4
:1001E0000F2901D2506943E0102901D290693FE004
:1001F000112901D2D0693BE012290ED2EFF3088019
:100200005FEADE0131D25FEA5E112CBF2030683038
:10021000D169490928BF04302AE0132905D2EFF338
:1002200009805FEADE0120D3EDE714291CD200200B
:10023000EFF310821043EFF3118212021043EFF339
:10024000138212041043EFF314825FEADE0128BF29
:1002500042F002025FEA5E112CBF22F0040242F07B
:1002600004021206104303E000E001E00020FFE773
:100270001860586840F40020586050E7586840F40F
:100280000020586058680003FCD418685FEADE025A
:100290002CBFEFF30982EFF30882042902D242F85F
:1002A000210061E0052901D204465DE0062901D262
:1002B000054659E0072901D2064655E0082901D232
:1002C000074651E0092901D280464DE00A2901D2B2
:1002D000814649E00B2901D2824645E00C2901D232
:1002E000834641E00E2901D210613DE00F2901D281
:1002F000506139E0102901D2906135E0112901D215
:10030000D06131E0122900D22EE0132900D22BE077
:10031000142927D20106090E81F310880104090E61
:1003200081F311880102090E81F31388010E8808F8
:100330002CBF4EF0040E2EF0040E21F00201C8086E
:100340002CBF2EF0100E4EF0100EEFF31480C008EC
:100350002CBF41F0040121F0040181F31488BFF3A4
:100360006F8F01E0FFE7FFE7DCE600BF53B94AB952
:10037000002908BF00281CBF4FF0FF314FF0FF30AD
:1003800000F00CB8ADF1080C6DE904CE00F008F8EF
:10039000DDF804E0DDE9022304B07047704700BFD8
:1003A0002DE9F04786468C460846089E1546744659
:1003B0001946002B40F0C2808542B2FA82F245D93C
:1003C0004AB1C2F1200300FA02FC2EFA03F3954071
:1003D00043EA0C0C94404FEA154EA8B2BCFBFEF861
:1003E000230C0EFB18CC08FB00F943EA0C4399459B
:1003F00028D9EB1808F1FF3704D2994502D9A8F1A2
:1004000002072B44A3EB0903A4B2B3FBFEFC0EFBD3
:100410001C330CFB00F044EA0344A04214D92C190D
:100420000CF1FF3304D2A04202D9ACF102032C44F8
:10043000241A43EA07401EB1D4400023346073609D
:10044000BDE8F0874746DDE76346F1E792BB431B13
:1004500001214FEA154EAFB2B3FBFEFC200C0EFBA0
:100460001C330CFB07F840EA0343984562D9EB18AC
:100470000CF1FF3004D2984502D9ACF102002B44B4
:10048000A3EB0803A4B2B3FBFEFC0EFB1C330CFB76
:1004900007F744EA0344A7424ED92C190CF1FF3365
:1004A00004D2A74202D9ACF102032C44E41B43EA74
:1004B0000040C0E7C2F1200320FA03F195409040CC
:1004C0002EFA03F303434FEA154EAFB2B1FBFEFC25
:1004D0000EFB1C10190C0CFB07F841EA0041884583
:1004E00004FA02F422D969180CF1FF3004D28845CD
:1004F00002D9ACF102002944A1EB08019BB2B1FB87
:10050000FEFC0EFB1C110CFB07F743EA01439F4264
:100510000ED9EB180CF1FF3104D29F4202D9ACF195
:1005200002012B44DB1B41EA004192E76046E3E70E
:100530006146F7E76046A3E76346B7E7834206D91B
:1005400016B9002108467BE7C6E900E0F9E7B3FAEF
:1005500083F78FB9834201D3724508D8BEEB0204FA
:1005600060EB030301209C461EB9002168E7384672
:10057000FAE7C6E9004CF8E7C7F1200CBB4022FAC5
:100580000CF41C432EFA0CF120FA0CF3B840014392
:100590004FEA14490EFA07F5B3FBF9F81FFA84FE87
:1005A00009FB18300B0C08FB0EFA43EA00439A458E
:1005B00002FA07F240D9E31808F1FF3004D29A4555
:1005C00002D9A8F102002344A3EB0A0389B2B3FBCA
:1005D000F9F809FB183308FB0EFE41EA03418E458A
:1005E0002CD9611808F1FF3304D28E4502D9A8F145
:1005F0000203214443EA0040A0FB0298A1EB0E0154
:100600004145CE46434602D306D14D4504D2B9EB0F
:10061000020E68EB04030138002EA6D0B5EB0E02E3
:1006200061EB030101FA0CFC22FA07F34CEA030325
:10063000F940C6E9003198E74046C5E74346D9E7A7
:10064000034613F8012B002AFBD1181A0138704712
:100650002DE9F04FBBB002AF00F0CAFA18B1E43791
:10066000BD46BDE8F08F01F09BF9B24BFB614FF046
:10067000020987F804904FF0000887F8058087F892
:10068000068087F807807B68BB61414668F30001FC
:1006900068F3410168F3820168F3C5014FF0030B71
:1006A0006BF388114FF0080A6AF3532168F31F5166
:1006B000434607F11802A04802F0D6FF9F4B7B6328
:1006C00087F8049087F8058087F8068087F8078008
:1006D0007B683B63414668F3000168F3410168F3BE
:1006E000820168F3C5016BF388116AF3532168F343
:1006F0001F51434607F130028F4802F0B5FF122127
:1007000008460AF070F88E4BFB6487F8049087F86F
:10071000058087F8068087F807807B68BB644146C0
:1007200068F3000168F3410168F3820168F3C501D1
:100730006BF388116AF3532168F31F51434607F1A5
:1007400048027D4802F090FF7E4801F075FB40F6BC
:10075000CD40002109F09EF87B4B7B6687F8049022
:1007600087F8058087F8068087F807807B683B66F6
:10077000414668F3000168F3410168F3820168F3C0
:10078000C5016BF388116AF3532168F31F51434687
:1007900007F16002684802F067FF494611200AF03D
:1007A0003CF86A4BFB6787F8049087F8058087F868
:1007B000068087F807807B68BB67414668F30001C5
:1007C00068F3410168F3820168F3C5016BF3881196
:1007D0006AF3532168F31F51434607F178025648E4
:1007E00002F042FF43465A4A12785A4909685A4869
:1007F000007801F073FB594BC7F8943087F80490E8
:1008000087F8058087F8068087F807807B68C7F837
:100810009030414668F3000168F3410168F38201BA
:1008200068F3C5016BF388116AF3532168F31F5114
:10083000434607F19002404802F016FFCDF80080D1
:1008400001230F220C21404601F0A2FB444BC7F8C4
:10085000AC3087F8049087F8058087F8068087F821
:1008600007807B68C7F8A830414668F3000168F349
:10087000410168F3820168F3C5016BF388116AF3E3
:10088000532168F31F51434607F1A8022A4802F09A
:10089000EBFE43F2444001F0A5FB324BC7F8C430F5
:1008A00087F8049087F8058087F8068087F8078026
:1008B0007B68C7F8C030414668F3000168F3410126
:1008C00068F3820168F3C5016BF388116AF3532161
:1008D00068F31F51434607F1C002174802F0C4FEF7
:1008E00040F6CD40002108F0D5FF8CE06FF0004CC1
:1008F000A8E06346BCF1080F03DDDFF86CE0C1F847
:1009000018E00C2B00DDC86101F12003002007E096
:1009100000F1E00EBE441EF8E0EC03F801EB0130FC
:100920000128F5D99BE06FF01B039DE06FF00041BB
:10093000CCE000BF88D40000A8D3000098D4000009
:10094000C8D4000000A1BC33E0D40000F0D4000003
:10095000CE01002000000020CF01002010D50000B3
:1009600028D5000038D50000040000206FF01B01DE
:100970003AB10320387100207871B871F871786845
:1009800018616FF300056FF341056FF382056FF394
:10099000C505032363F38815C1F30A0363F35325E5
:1009A0006FF31F5500232946524802F05DFEC546ED
:1009B00001F038FC032821D14F4BC7F8DC3002236B
:1009C0003B7100237B71BB71FB717A68C7F8D8203B
:1009D00063F3000663F3410663F3820663F3C5061F
:1009E000032262F38816082262F3532663F31F562C
:1009F00007F1D80231463F4802F036FE4FF420306E
:100A0000002108F047FF01F035FB3C4B19783C48CA
:100A100001F080FBDFF8EC805FFA88F001F08EFBDC
:100A2000002001F03DFB98F80000E84600233B71F0
:100A300002237B718AB002A911F110023FF456AF74
:100A40004FF0120C22B1BCF1040F01DD2E4B4B61B3
:100A500000233B7002237B70002A7FF44AAFBCF175
:100A6000110F7FF760AF122342B1042038710020CC
:100A70007871B8710120F871786808616FF300042B
:100A80006FF341046FF382046FF3C504032161F334
:100A90008814C3F30A0363F353246FF31F54002332
:100AA0002146144802F0E0FDC546164A137801338A
:100AB0001370002001F05AFB01F0D0FBE84688B02B
:100AC00002AB13F110023FF431AF0C215AB18C4646
:100AD000042903DDDFF834E0C3F814E0BCF1080FAB
:100AE0007FF744AF98610B2901DD0C2140E76FF0DF
:100AF0001B013DE7A8D3000088D50000D0010020ED
:100B0000040000206616002068D5000070D50000A3
:100B100010B58EB0044600680BF0DDFFD0B14FF485
:100B2000D011204609F0A2FD002837D100222179FA
:100B3000206809F0D2FD2120002108F0ABFE01223F
:100B40002179206809F0C9FDA420002108F0A2FE47
:100B50000EB010BD234B0D9302238DF804300023FB
:100B60008DF805308DF806308DF80730019A0C921B
:100B7000194663F3000163F3410163F3820163F3F8
:100B8000C501012262F38811082262F3532163F345
:100B90001F510CAA144802F067FDD9E7134B0793C5
:100BA00002238DF8043000238DF805308DF80630CF
:100BB0008DF80730019A0692194663F3000163F33A
:100BC000410163F3820163F3C501012262F38811DD
:100BD000082262F3532163F31F5106AA024802F070
:100BE00043FDB5E79CD50000D0D30000B0D5000090
:100BF00000B58FB02C480BF06EFF40B12B4B9868BE
:100C00000BF069FF48B300200FB05DF804FB284BE0
:100C10000D9302238DF8043000238DF805308DF8F4
:100C200006308DF80730019A0C92194663F30001E3
:100C300063F3410163F3820163F3C501012262F3AF
:100C40008811082262F3532163F31F510CAA19483B
:100C500002F00AFD4FF0FF30D6E7174B079302234F
:100C60008DF8043000238DF805308DF806308DF8AE
:100C70000730019A0692194663F3000163F34101BC
:100C800063F3820163F3C501012262F38811082234
:100C900062F3532163F31F5106AA064802F0E4FCF5
:100CA0004FF0FF30B0E700BFBCD1000018000020BB
:100CB000CCD50000D0D30000E8D5000038B50546FB
:100CC00009F018FD04460B21064809F0E6FC01284E
:100CD00006D109F00FFD001BA842F4D9012000E065
:100CE000002038BD80D10000F0B58BB000AF386176
:100CF00001237B61B9610221F9613A627B6207F1EC
:100D00001003BB600323FB604FF4FA70FFF7D6FFBC
:100D100048B9244883681C68002307F10802224967
:100D2000A047044618B920462C37BD46F0BD6D4695
:100D300088B06B4613F110022ED00C213AB1084650
:100D4000042901DD194E5E61082800DD9C610B2934
:100D500025DD4FF00C0C3AB1032139710021797176
:100D6000B971F9717868186100216FF300016FF3B0
:100D700041016FF382016FF3C501012363F3881111
:100D8000CCF30A0C6CF353216FF31F510023084876
:100D900002F06AFCAD46C6E76FF00041CEE76FF0A7
:100DA0001B0CD8E7BCD1000018000020FCD50000C7
:100DB000D0D30000F0B585B000AFF971060A3E73DC
:100DC000C0B278736C468AB06B4613F1100274D0CF
:100DD00014218AB18C46042901DD5D4D5D61BCF1B1
:100DE000080F01DD5B4D9D61BCF10C0F00DDDE6184
:100DF000BCF1100F00DD1862132961DD4FF0140CF7
:100E00003AB10521397200217972B972F972B86864
:100E1000186100216FF300016FF341016FF382014C
:100E20006FF3C501042363F38811CCF30A0363F362
:100E300053216FF31F510023474802F015FCA546CC
:100E4000FA1D07F10C010D20FFF74EFF04460028A4
:100E50003FD06D4688B06B4613F1100233D00C21A1
:100E60003AB10846042901DD3C4E5E61082800DDE8
:100E70009C610B292ADD0C243AB10321397200212F
:100E80007972B972F972B868186100216FF30001C4
:100E90006FF341016FF382016FF3C501012363F327
:100EA0008811C4F30A0464F353216FF31F51002324
:100EB000294802F0D9FBAD46FEE76FF0004188E714
:100EC0006FF01B0C9CE76FF00041C9E76FF01B044B
:100ED000D2E7FC7988B06B4613F1100232D01021B2
:100EE0005AB10846042901DD1D4D5D61082801DD68
:100EF000184D9D610C2800DDDC610F2925DD1024D3
:100F00003AB10421397200217972B972F972B86864
:100F1000186100216FF300016FF341016FF382014B
:100F20006FF3C501042363F38811C4F30A0464F367
:100F300053216FF31F510023074802F095FB14372C
:100F4000BD46F0BD6FF00041CAE76FF01B04D7E764
:100F500020D600005CD80000D0D3000038D60000B6
:100F600058D60000F0B591B000AFB8620123FB6223
:100F70003963022179630020B863FB6307F1280419
:100F80003C6203247C6238617B61BA61FB6107F1DA
:100F90001003BB60F9604FF4FA70FFF78FFE50B991
:100FA000244883681C6807F1080307F120022249DE
:100FB000A047044618B920464437BD46F0BD6D46EB
:100FC00088B06B4613F110022ED00C213AB10846BE
:100FD000042901DD194E5E61082800DD9C610B29A2
:100FE00025DD4FF00C0C3AB10321397100217971E4
:100FF000B971F9717868186100216FF300016FF31E
:1010000041016FF382016FF3C501012363F388117E
:10101000CCF30A0C6CF353216FF31F5100230848E3
:1010200002F022FBAD46C6E76FF00041CEE76FF05D
:101030001B0CD8E7BCD10000180000206CD60000C3
:10104000D0D30000F0B585B000AF050A3D73C0B243
:1010500078736C468AB06B4613F110027DD0142170
:101060008AB18C46042901DD5F4E5E61BCF1080F38
:1010700001DD5E4E9E61BCF10C0F00DDDD61BCF157
:10108000100F00DD186213296ADD4FF0140C3AB11D
:101090000521397100217971B971F9717868186188
:1010A00000216FF300016FF341016FF382016FF3D1
:1010B000C501042363F38811CCF30A0C6CF35321AC
:1010C0006FF31F5100234A4802F0CEFAA54607F1FC
:1010D0000B0207F10C011D20FFF744FF0446002816
:1010E00041D1FC7A6D4688B06B4613F1100275D081
:1010F00010215AB10846042901DD3E4E5E610828E0
:1011000001DD3A4E9E610C2800DDDC610F2968DDAF
:1011100010243AB10421397100217971B971F97142
:101120007868186100216FF300016FF341016FF3DC
:1011300082016FF3C501042363F38811C4F30A0429
:1011400064F353216FF31F510023294802F08CFAF6
:10115000AD46F87A1437BD46F0BD6FF000417FE729
:101160006FF01B0C93E76E4688B06B4613F11002CC
:101170002ED00C213AB10846042901DD1E4D5D61D7
:10118000082800DD9C610B2925DD0C253AB10321DF
:10119000397100217971B971F9717868186100218C
:1011A0006FF300016FF341016FF382016FF3C5012B
:1011B000012363F38811C5F30A0565F353216FF327
:1011C0001F5100230A4802F04FFAB546E0B2C1E7CA
:1011D0006FF00041CEE76FF01B05D7E76FF00041DD
:1011E00087E76FF01B0494E720D6000044D8000086
:1011F000D0D3000058D600008CD60000F0B585B0E2
:1012000000AF796038733A1D07F10C010E20FFF72B
:101210006BFD00283BD005466C4688B06B4613F149
:1012200010022ED00C213AB10846042901DD194ED6
:101230005E61082800DD9D610B2925DD4FF00C0C57
:101240003AB10321397200217972B972F972B86822
:10125000186100216FF300016FF341016FF3820108
:101260006FF3C501012363F38811CCF30A0C6CF30F
:1012700053216FF31F510023074802F0F5F9A546EB
:10128000FEE76FF00041CEE76FF01B0CD8E7143794
:10129000BD46F0BD38D60000D0D30000F0B587B011
:1012A00000AF786007F11402391DC020FFF75AFE25
:1012B000F8B979696C4600233B7402237B7488B0CB
:1012C000EC461CF110024FD00E2022B1042802DDA2
:1012D000424BCCF8143000233B7302237B73002A6B
:1012E00050D0082801DDCCF818100CF11C030021A7
:1012F00046E004466D4688B06B4613F110022DD0CF
:101300000C213AB10846042901DD354E5E610828FA
:1013100000DD9C610B2924DD0C243AB103213974D2
:1013200000217974B974F9743869186100216FF378
:1013300000016FF341016FF382016FF3C5010123D7
:1013400063F38811C4F30A0363F353216FF31F514E
:101350000023244802F088F9AD4638E06FF00041E0
:10136000CFE76FF01B04D8E76FF00040ADE701F165
:10137000180505EB070E1EF80CEC03F801EB013124
:101380000129F4D90D2825DD0E234AB10321397432
:1013900000217974B9740121F9743869CCF810000E
:1013A00000216FF300016FF341016FF382016FF3CE
:1013B000C501032060F38811C3F30A0363F35321CB
:1013C0006FF31F510023074802F04EF9A5461C3762
:1013D000BD46F0BD6FF01B03D7E700BFC0D60000CD
:1013E000A8D60000D0D30000F0B585B000AFF871EA
:1013F00007F10C02F91D8020FFF7B4FD10B9143776
:10140000BD46F0BD05466C4688B06B4613F1100230
:101410002ED00C213AB10846042901DD174E5E6139
:10142000082800DD9D610B2925DD4FF00C0C3AB139
:101430000321397200217972B972F972B8681861A2
:1014400000216FF300016FF341016FF382016FF32D
:10145000C501012363F38811CCF30A0C6CF353210B
:101460006FF31F510023064802F0FEF8A546C6E7B9
:101470006FF00041CEE76FF01B0CD8E7D0D600002C
:10148000D0D30000F0B585B000AF030C3B73030A66
:101490007B73B87307F1080207F10C018320FFF793
:1014A00061FD10B91437BD46F0BD05466C4688B0E5
:1014B0006B4613F110022ED00C213AB108460429D4
:1014C00001DD184E5E61082800DD9D610B2925DDD8
:1014D0004FF00C0C3AB10321397100217971B971C7
:1014E000F9717868186100216FF300016FF3410111
:1014F0006FF382016FF3C501012363F38811CCF30D
:101500000A0C6CF353216FF31F510023064802F0BD
:10151000ABF8A546C6E76FF00041CEE76FF01B0CB5
:10152000D8E700BFE8D60000D0D30000F0B585B002
:1015300000AFF87107F10C02F91D8920FFF712FDC9
:1015400010B91437BD46F0BD05466C4688B06B46F1
:1015500013F110022ED00C213AB10846042901DD06
:10156000174E5E61082800DD9D610B2925DD4FF0D7
:101570000C0C3AB10321397200217972B972F972F7
:10158000B868186100216FF300016FF341016FF338
:1015900082016FF3C501012363F38811CCF30A0CB8
:1015A0006CF353216FF31F510023064802F05CF8DF
:1015B000A546C6E76FF00041CEE76FF01B0CD8E7F9
:1015C000FCD60000D0D30000F0B585B000AF387372
:1015D000797307F1080207F10C019820FFF7C2FCAC
:1015E00010B91437BD46F0BD05466C4688B06B4651
:1015F00013F110022ED00C213AB10846042901DD66
:10160000174E5E61082800DD9D610B2925DD4FF036
:101610000C0C3AB10321397100217971B971F9715A
:101620007868186100216FF300016FF341016FF3D7
:1016300082016FF3C501012363F38811CCF30A0C17
:101640006CF353216FF31F510023064802F00CF88E
:10165000A546C6E76FF00041CEE76FF01B0CD8E758
:1016600014D70000D0D30000F0B585B000AF3873B8
:101670007973BA73FB7307F1080207F10C01952027
:10168000FFF770FC10B91437BD46F0BD05466C4637
:1016900088B06B4613F110022ED00C213AB10846E7
:1016A000042901DD174E5E61082800DD9D610B29CC
:1016B00025DD4FF00C0C3AB103213971002179710D
:1016C000B971F9717868186100216FF300016FF347
:1016D00041016FF382016FF3C501012363F38811A8
:1016E000CCF30A0C6CF353216FF31F51002306480F
:1016F00001F0BAFFA546C6E76FF00041CEE76FF0F4
:101700001B0CD8E730D70000D0D30000F0B585B06F
:1017100000AF044607F1080207F10C011220FFF7A1
:1017200021FC38B97A7BBB7B43EA02232380143740
:10173000BD46F0BD06466D4688B06B4613F11002FB
:101740002DD00C213AB10846042901DD174C5C610B
:10175000082800DD9E610B2924DD0C243AB1032109
:10176000397100217971B971F971786818610021B6
:101770006FF300016FF341016FF382016FF3C50155
:10178000012363F38811C4F30A0464F353216FF354
:101790001F510023064801F067FFAD46C7E76FF011
:1017A0000041CFE76FF01B04D8E700BF48D7000027
:1017B000D0D30000F0B585B000AF030A3B73787357
:1017C00007F1080207F10C010220FFF7CBFB10B96B
:1017D0001437BD46F0BD05466C4688B06B4613F124
:1017E00010022ED00C213AB10846042901DD184E12
:1017F0005E61082800DD9D610B2925DD4FF00C0C92
:101800003AB10321397100217971B971F9717868A0
:10181000186100216FF300016FF341016FF3820142
:101820006FF3C501012363F38811CCF30A0C6CF349
:1018300053216FF31F510023064801F015FFA54601
:10184000C6E76FF00041CEE76FF01B0CD8E700BF92
:1018500064D70000D0D30000F0B585B000AF030E10
:101860003B73030C7B73030ABB73F87307F1080225
:1018700007F10C018620FFF775FB10B91437BD4640
:10188000F0BD05466C4688B06B4613F110022ED0B1
:101890000C213AB10846042901DD184E5E61082882
:1018A00000DD9D610B2925DD4FF00C0C3AB10321C1
:1018B000397100217971B971F97178681861002165
:1018C0006FF300016FF341016FF382016FF3C50104
:1018D000012363F38811CCF30A0C6CF353216FF3EB
:1018E0001F510023064801F0BFFEA546C6E76FF072
:1018F0000041CEE76FF01B0CD8E700BF80D7000097
:10190000D0D30000F0B585B000AFF87107F10C023C
:10191000F91D8A20FFF726FB10B91437BD46F0BD2C
:1019200005466C4688B06B4613F110022ED00C2190
:101930003AB10846042901DD174E5E61082800DD32
:101940009D610B2925DD4FF00C0C3AB10321397252
:1019500000217972B972F972B868186100216FF3C9
:1019600000016FF341016FF382016FF3C5010123A1
:1019700063F38811CCF30A0C6CF353216FF31F51FE
:101980000023064801F070FEA546C6E76FF000414F
:10199000CEE76FF01B0CD8E780D70000D0D3000053
:1019A00008B500F061FC08B1012008BD0948FFF747
:1019B000AFF80020FFF718FD08F0B6FE202801D090
:1019C0000020F2E70120FFF79DFF08F0BCFE012098
:1019D000EBE700BF84D80000F0B585B000AF044647
:1019E00007F1080207F10C011120FFF7BBFA20B93B
:1019F0007B7B23701437BD46F0BD06466D4688B02C
:101A00006B4613F110022DD00C213AB1084604297F
:101A100001DD174C5C61082800DD9E610B2924DD87
:101A20000C243AB10321397100217971B971F9712E
:101A30007868186100216FF300016FF341016FF3C3
:101A400082016FF3C501012363F38811C4F30A0413
:101A500064F353216FF31F510023064801F004FE85
:101A6000AD46C7E76FF00041CFE76FF01B04D8E742
:101A70009CD70000D0D3000010B582B004460DF111
:101A80000700FFF7A9FF40F68900FFF7DBFA8DF8A2
:101A900006009DF80730012B0DD040F004008DF8B2
:101AA00006000DF1060101F0FE0140F68900FFF786
:101AB00081F902B010BD044B9C42EED120F004002D
:101AC0008DF80600EDE700BF20A10700F0B585B056
:101AD00000AF3872797207F10C0207F108018E200D
:101AE000FFF740FA10B91437BD46F0BD05466C4605
:101AF00088B06B4613F110022ED00C213AB1084683
:101B0000042901DD174E5E61082800DD9D610B2967
:101B100025DD4FF00C0C3AB10321397100217971A8
:101B2000B971F9717868186100216FF300016FF3E2
:101B300041016FF382016FF3C501012363F3881143
:101B4000CCF30A0C6CF353216FF31F5100230648AA
:101B500001F08AFDA546C6E76FF00041CEE76FF0C1
:101B60001B0CD8E7B8D70000D0D30000F0B585B083
:101B700000AF04468E46284907F1040C03C98CE8DF
:101B800003003C7187F805E0BA71FB7107F10C02A4
:101B900061468B20FFF7E6F910B91437BD46F0BD5A
:101BA00004466D4688B06B4613F110022DD00C210F
:101BB0003AB10846042901DD184E5E61082800DDAF
:101BC0009C610B2924DD0C243AB1032139700021DA
:101BD0007970B970F9703868186100216FF30001ED
:101BE0006FF341016FF382016FF3C501012363F3CA
:101BF0008811C4F30A0464F353216FF31F510023C7
:101C0000074801F031FDAD46C7E76FF00041CFE76F
:101C10006FF01B04D8E700BF50D400009CD7000031
:101C2000D0D30000F0B587B000AF86460D4614460D
:101C300007F1080C2B4A07CAACE803008CF8002017
:101C40004FEA1E223A7287F809E0BD72FC723B73BC
:101C500097F830307B7307F1140207F108018C20EC
:101C6000FFF780F910B91C37BD46F0BD04466D463C
:101C700088B06B4613F110022DD00C213AB1084602
:101C8000042901DD184E5E61082800DD9C610B29E6
:101C900024DD0C243AB10321397100217971B97125
:101CA000F9717868186100216FF300016FF3410149
:101CB0006FF382016FF3C501012363F38811C4F34D
:101CC0000A0464F353216FF31F510023074801F006
:101CD000CBFCAD46C7E76FF00041CFE76FF01B04C8
:101CE000D8E700BF58D40000D0D70000D0D3000000
:101CF000F0B585B000AF3872797207F10C0207F1C8
:101D000008018F20FFF72EF910B91437BD46F0BD3A
:101D100005466C4688B06B4613F110022ED00C219C
:101D20003AB10846042901DD174E5E61082800DD3E
:101D30009D610B2925DD4FF00C0C3AB1032139715F
:101D400000217971B971F9717868186100216FF318
:101D500000016FF341016FF382016FF3C5010123AD
:101D600063F38811CCF30A0C6CF353216FF31F510A
:101D70000023064801F078FCA546C6E76FF0004155
:101D8000CEE76FF01B0CD8E7F0D70000D0D30000EF
:101D9000F0B585B000AF05460C4607F10C0207F11F
:101DA00008011320FFF7DEF830B97B7A2B70BB7A7D
:101DB00023701437BD46F0BD06466D4688B06B46AD
:101DC00013F110022DD00C213AB10846042901DD8F
:101DD000174C5C61082800DD9E610B2924DD0C2472
:101DE0003AB10321397100217971B971F9717868BB
:101DF000186100216FF300016FF341016FF382015D
:101E00006FF3C501012363F38811C4F30A0464F37B
:101E100053216FF31F510023064801F025FCAD4606
:101E2000C7E76FF00041CFE76FF01B04D8E700BFB2
:101E300014D80000D0D3000010B582B00146214B69
:101E4000984217D86B238DF804306F238DF8053036
:101E50001D4A00234806C909FEF788FA04469DF882
:101E600005109DF80400FFF7AFFB2046FFF7F4FCD8
:101E700002B010BD154B984206D275238DF8043080
:101E800081238DF80530E3E7114B984206D8C12332
:101E90008DF80430C5238DF80530D9E70D4B9842F5
:101EA00006D8D7238DF80430DB238DF80530CFE733
:101EB000094B9842CCD8E1238DF80430E9238DF802
:101EC0000530C5E77F6B951A0048E80180F3BF2B0A
:101ED000FF465A313FF54534FFAA904110B5254CD5
:101EE0002070254C2160254C2270254C23700C2835
:101EF00003D8042802D8052000E00C2042F28B3CD5
:101F000061451ED943F2C724A14223D944F2177474
:101F1000A14221D946F28F54A1421FD948F69364B9
:101F2000A1421DD94CF68334A1421BD9154CA142C4
:101F30001AD9154CA14219D9144CA14218D805211F
:101F400000E00021043AD2B2042A00D90022FFF7AF
:101F50000DFE10BD0821F5E70121F3E70921F1E7A6
:101F60000221EFE70A21EDE70321EBE70421E9E78E
:101F70000621E7E7D201002014000020D101002053
:101F80006E160020676E01006BDC0200D7B80500FA
:101F900010B582B0844608469DF810400C4981F87F
:101FA00000C00C4908800C490A700C490B700C49A0
:101FB0000C70BCF1010F01D04FF0000C0094614691
:101FC000FFF730FE204608F0F2FB02B010BD00BF64
:101FD0006D160020CC0100206C1600206B1600202E
:101FE0006A16002010B588B0030A8DF804308DF809
:101FF0000500FF2808D901A901F0FC014FF4E860B1
:10200000FEF7D8FE08B010BD0446184B0793022314
:102010008DF8003000238DF801308DF802308DF8F6
:102020000330009A0692194663F3000163F34101FD
:1020300063F3820163F3C501032262F3881108226E
:1020400062F3532163F31F5106AA094801F00CFB08
:1020500024F00F035BB243F004038DF80430240135
:1020600044F004048DF80540C5E700BF34D80000F3
:10207000D0D3000008B5074B00221A70064B187821
:10208000411EC9B2FFF734FE044B1868FFF7F4FC99
:1020900008BD00BF6716002068160020140000204D
:1020A00010B582B0044608F03FFB602820D0114BE9
:1020B0001B780093104B1B78104A1278104909883E
:1020C00010480078FFF764FF0F4B01221A700F4B86
:1020D00000221A80A001B0F1807F00D31046FFF7E4
:1020E000D1F908F007FB0A4B1860012002B010BDBF
:1020F0000020FBE76A1600206B1600206716002000
:10210000CC0100206D160020691600206416002006
:102110002009002038B50C46064D01462878FFF707
:102120006DF82B7823442B70034B1A7814441C70E1
:1021300038BD00BF681600206716002010B582B0B9
:102140008DF80700074C0DF107012078FFF756F8CE
:10215000237801332370044A13780133137002B0DB
:1021600010BD00BF6816002067160020284B1B8892
:102170009BB20BB10120704730B583B00446ADF877
:10218000063008F0B7FA054601E007F0F1FABDF8AD
:10219000063083B91E4B1B889BB263B90DF1060054
:1021A000FFF7B4FA08F0A6FA431BA342EDD9002CBE
:1021B000EBD0002010E0164B1B889BB22BBB154BBD
:1021C0001B78012B0AD0042B0FD0052B14D0BDF89F
:1021D00006200F4B1A80012003B030BD08F08AFAA8
:1021E0000D4A1368C31A1360F1E70C490C48FFF756
:1021F000CFFD08F0BEFAEAE708490948FFF7C8FD35
:1022000040F2FF30FFF7D6FAE1E70120E4E700BF34
:10221000641600206916002020090020681600209E
:10222000671600200B4B1B889BB20B4A10780528C1
:1022300006D013F4007F09D0012805D0062070478E
:10224000044A00211180F4E70320704703B9704766
:102250000820FCE76416002069160020014B18686E
:10226000704700BF20090020F0B583B000AF4FF4E5
:1022700000318B4808F064FB00283FD06D4688B0E1
:102280006B4613F1100233D00C2142B108460429E9
:1022900001DD844C5C61082801DD0A2098610B296E
:1022A00029DD0C243AB10321397100217971B9710A
:1022B000F9717868186100216FF300016FF3410133
:1022C0006FF382016FF3C501012363F38811C4F337
:1022D0000A0363F353216FF31F510023724801F087
:1022E000C3F9AD464FF0FF3420460C37BD46F0BD74
:1022F0006FF00041C9E76FF01B04D3E701220B2107
:102300006A4808F0E1FA00283DD14FF4B01168485E
:1023100008F016FB002843D06D4688B06B4613F1D9
:10232000100237D00C2142B10846042901DD5D4C72
:102330005C61082801DD082098610B292DDD0C2443
:102340003AB10321397100217971B971F971786855
:10235000186100216FF300016FF341016FF38201F7
:102360006FF3C501012363F38811C4F30A0464F316
:1023700053216FF31F5100234B4801F075F9AD460F
:102380004FF0FF34B0E70B22484B1968494808F07A
:1023900078FBA9E76FF00041C5E76FF01B04CFE7BA
:1023A0004FF4B011444808F0CBFA0446A0BB6E4687
:1023B00088B06B4613F110026BD00C2142B1084675
:1023C000042901DD3D4D5D61082801DD3C4898612F
:1023D0000B2961DD0C253AB1032139710021797196
:1023E000B971F9717868186100216FF300016FF31A
:1023F00041016FF382016FF3C501042363F3881178
:10240000C5F30A0565F353216FF31F5100232648D6
:1024100001F02AF9B54667E76D4688B06B4613F1BF
:10242000100230D00C2142B10846042901DD1D4CB8
:102430005C61082801DD082098610B2926DD0C2449
:102440003AB10321397100217971B971F971786854
:10245000186100216FF300016FF341016FF38201F6
:102460006FF3C501012363F38811C4F30A0363F317
:1024700053216FF31F5100230B4801F0F5F8AD46CF
:102480004FF0FF3430E76FF00041CCE76FF01B04F2
:10249000D6E76FF0004191E76FF01B059BE700BFA7
:1024A00028D900008CD8000050D3000080D1000053
:1024B00020D90000A8D8000018D90000DCD80000FE
:1024C00000D900002DE9F04F91B005920293134618
:1024D00002F004020092C3F3C20210F0030301935E
:1024E00040F02D8280468A460132041D00284FD0DC
:1024F000B8F1000F05D0A4EB08030433534500F2F4
:102500002182029B5D1E019B049306930393002688
:102510004FF0FF3B0427B946B8F1000F01D0029BF2
:102520002360531E0793002A40F35F81059B13F03D
:10253000020228D00120A4EB08018B081AB1B1F5E2
:10254000007F80F0058203990F2900F20482B8F120
:10255000000F00F06281DBB201F140026A4402F830
:10256000103C02F820BC002800F0538163F07F0388
:1025700001F140026A4402F8103C049B01330493C9
:10258000039B0133039304340022CC4640463DE0D4
:1025900001F0070A5444CAF1080AA9E7002634E00A
:1025A000002632E0002630E00827BC462DE0252931
:1025B0002BD10BF1010B01260427BC4625E047294E
:1025C000EED82A2914D32A39C9B24FF0010E0EFAD7
:1025D00001F14FF6DA7E11EA0E0F16D111F0625FAB
:1025E00040F0C18011F0010F40F08C8000260CE01B
:1025F000252903D10BF1FF3B002606E001D9002677
:1026000003E0202901D02329CCD11D466B1C697819
:10261000002900F01B81002EC9D07A29BED84C2990
:10262000CDD34C392E2961D80FF2040E5EF821F07B
:102630000B260000ED260000ED260000ED26000030
:10264000ED260000ED260000ED260000ED2600003E
:10265000ED260000ED260000ED260000ED2600002E
:10266000FD260000ED260000ED260000ED2600000E
:10267000ED260000ED260000ED260000ED2600000E
:10268000ED26000067270000ED260000FD26000073
:10269000FD2600006727000067270000672700006D
:1026A0000B260000FD260000A9250000ED260000F5
:1026B0000B260000ED260000C3270000FD260000C9
:1026C000C3270000ED260000ED260000CB27000008
:1026D000F7260000FD260000ED260000ED26000094
:1026E000FD260000ED260000F126000000268CE704
:1026F0000427BC4689E70427BC4686E729786C296D
:1027000025D000263C44013CB4FBF7F407FB04F45D
:10271000254620B1211A61448A45C0F01681002A5D
:1027200058D1BCF1040F00F08980BCF1080F40F0D3
:1027300015811A99073121F0070101F108051A9551
:10274000D1E9008908B1C4E9008908345DE713F8CC
:10275000021C6C2903D000260427BC46D2E70026C1
:102760000827BC46CEE729784C291AD01A99073198
:1027700021F0070101F108061A96D1E90067073434
:1027800024F0070440B1211A0831514513D82978A3
:102790004C2913D0C4E90067083400260827BC463A
:1027A00033E71A99073121F0070101F108061A965B
:1027B000D1E90067E3E76FF01B00BDE0C4E9006703
:1027C000EAE700260427BC469CE732460026042799
:1027D000BC4697E72C46E14680461A9A111D1A918D
:1027E00012680292079A1D4696E6624B029A9A4236
:1027F00004D3614B9A420AD3002300E00023002B4C
:102800007FF494AE059B03F00202002093E60123BF
:10281000F5E7069B01330693B2E610B10AF1010A0F
:10282000AEE6009B13B10AF1020AA9E60298FDF791
:1028300007FF00EB0A0303F1020AA1E61A990D1D36
:102840001A95096800B121600434DEE68046231A37
:10285000B3F5806F80F0858090B1002202609B0804
:102860000370009B83B1069BC370049B88F8023001
:102870001BBB019DDDF80C90DDF810B0029F3DE020
:102880005344A3F1080057E0069B4370EDE7013382
:102890009842EED903F140026A4412F8101C12F972
:1028A000102C002AF3DA01F07F01A4EB08020132B8
:1028B000924559D304F8011BE9E7019B0398E7E728
:1028C000009B43B305F140036B4413F8203C04F82C
:1028D000013B019EA4EB0803334401339A4546D3E0
:1028E00005F140036B4413F8103C04F8013B3246F9
:1028F000394620460AF0DAFB34440135A94519D996
:10290000BBF1000FDCD005F140036B4413F9103C20
:10291000002BD5DAF1E705F140036B4413F8103CC6
:1029200058F82370002248F823203846FDF788FE27
:10293000461CCFE7A4EB080011B0BDE8F08F6FF0A4
:102940000D00F9E76FF01B00F6E76FF01B00F3E7EF
:102950006FF01500F0E76FF01500EDE76FF0150070
:10296000EAE76FF01500E7E76FF01B00E4E76FF0B0
:102970001B00E1E7FCD000000CE800002DE9F04F5F
:1029800097B000AF8346BA613B61D7F88030C3F39C
:10299000C0033B62F96011B907F0EBFFF8609BF8E8
:1029A0000260B14636B1D7F8803013F0010F0DD177
:1029B000002300E000239BF803207A6242B1D7F89D
:1029C000802012F0020F22D1002202E00123F2E760
:1029D000002202B9EBB19BF80050AA00BA60DBF804
:1029E00004207A610BEB8505BA69F2B1002B40F047
:1029F0001081B9F1000F00F01B81D7F8803013F07F
:102A0000040F40F019810020F861064605E101221B
:102A1000DFE7BB691BB13A69F96858469847FC681B
:102A200020465C37BD46BDE8F08FFC682BBBB9F192
:102A3000000F38D0D7F8803013F004033B6127D063
:102A40004D4400233B6123E00444013501364E45EB
:102A50001AD22A7800235BF822201946B86907F0B9
:102A60009DFFBAF1000FEFD0D7F888309845EBD230
:102A70002AF8180008F10108E6E70026C7F81C80CC
:102A8000B046D7F884A0E2E7C7F81080D7F81C80DA
:102A9000D7F8803003F00503FB604FF0000AA14631
:102AA000C7F81CB09FE0C7F81090F1E700253B6A1B
:102AB0007BB9002D79D0D7F8803013F0010F79D190
:102AC000FB68002B6FD10223A9EB030988E00125E5
:102AD000EDE75946786907F0A7FF0028E9D06C4672
:102AE000002387F82C30022387F82D308AB06946FE
:102AF00011F1100237D012251AB1042D01DDB24BAD
:102B00004B61002387F82830022387F829306ABBFD
:102B1000112D45DD122362B1042087F82C0000201E
:102B200087F82D0087F82E00012087F82F00F86A1B
:102B300008616FF300086FF341086FF382086FF3C9
:102B4000C508022161F38818C3F30A0363F353280D
:102B50006FF31F58002341469C4800F085FDA546B1
:102B6000A9F102093CE06FF00045C5E72B46082DAE
:102B700001DD786988610C2B01DDC1F81CB001F121
:102B80002003002009E000F1300C07F1280EF44486
:102B90001CF830CC03F801CB01300128F3D9B7E79A
:102BA0006FF01B03B7E701238EE7D7F8803013F0EF
:102BB000020F15D0002322461946B86907F0EEFE31
:102BC000D7F8843053B13B69D7F88820934205D2B7
:102BD000D7F8842022F8130001333B610138814487
:102BE0000AF1010A35467B6A9A4510D22E4616F83C
:102BF00002BB6B78FA6952F82340754B9C42FFF494
:102C000055AF744B9C42FFF462AF00254FE74C4632
:102C100006E707F144000023FB6118B14A46294644
:102C20000AF044FA4D444FF00008C7F804901EE043
:102C30000020F8610646F0E7FE6107F13400002647
:102C4000EBE700253B6A33BB002D3BD0D7F8803043
:102C500013F0010F26D0731C06F1300207F1280192
:102C6000561806F8149CDEB208F1010825467B6A66
:102C700098454AD22C4614F802AB95F801905BF8BF
:102C80002930534A9342DCD3524A934201D3002560
:102C9000D8E70125D6E75146786907F0C5FE002838
:102CA000D2D0E1E7D7F8803013F0040FDCD0FA6916
:102CB000531C303207F128010A4402F8249CDBB28D
:102CC000FB61D1E7D7F8803013F0020F09D0731CF5
:102CD00006F1300207F12801561806F8149CDEB2FE
:102CE000C2E7F869431C00F1300107F128028A1895
:102CF00002F824AC02460232D2B2FA6107F158025D
:102D000052FA83F303F8249CAEE7D7F804909BF8BB
:102D1000003087F854309BF80130334487F8553041
:102D2000D7F8803013F0020F0ED1FB69C3F34703CD
:102D300087F85730D7F8803013F0010F06D113F021
:102D4000040F3FD1002302E00023F1E7002387F8BE
:102D50005630DBF800003863786DCBF80000D7F808
:102D600010804246B9685846D7F818A0D047041ECC
:102D7000FFF656AE386BCBF80000C7F8108042461D
:102D8000F96907F13400D047002856DB04EB00084E
:102D9000B96849447B6A01EB4301D7F810904A4671
:102DA000FB68591A2846D047041EFFF639AE08EBD7
:102DB00004054FF000087E62C7F820B05646D7F8E9
:102DC00084B01EE0FB69C2E730D9000078D3000070
:102DD000FCD000000CE800004FF0000A4A46012138
:102DE00007F12C00B047002829DB05445346224652
:102DF0004946304607F0D2FD002822DB054408F1A1
:102E000001087B6A984511D208F1300307F12802C6
:102E1000134413F8143C87F82C303A6A52F82340D4
:102E2000BBF1000FD8D03BF818A0D7E73A690021D2
:102E30000846BB6998472C46F2E50446F0E504468F
:102E4000EEE50446ECE500BF014B1860704700BF9B
:102E50002C00002080B505460E461746984606F021
:102E600043FD03460AF040F90446DFF8189049F89C
:102E70000030424639463046A84754F8090002F06F
:102E8000C7FA00BF080000002DE9F04383B00446F4
:102E900008461546238B13F0080F05D103F00706EB
:102EA00000230093019355E0012909D043F020034A
:102EB000238385F31188BFF36F8F03B0BDE8F083E0
:102EC00043F010032383F4E7204607F087FE43E036
:102ED000D4F814904A466946204607F098FE4FF011
:102EE0000008238B03F00707B74269D0A268002AC5
:102EF00066D0012243F00803238385F31188BFF3D2
:102F00006F8F002A64D1009B2BB14B463A4669462D
:102F1000204607F0F5FEB8F1000F02D034492046F4
:102F2000C0474FF02003EFF3118583F31288BFF3FE
:102F30006F8F238B23F008032383238B13F0100F51
:102F40004CD023F0100323830120268B06F00706C4
:102F50000028AED00228B7D00028AAD00138042813
:102F60002AD801A353F820F0D12E0000B92F000079
:102F70007D2F0000912F0000A52F00002369D3F8BA
:102F800000800621204607F0FFFD4FF00009A8E76A
:102F90002369D3F804800421204607F0F5FD4FF0A3
:102FA00000099EE72369D3F808800521204607F031
:102FB000EBFD4FF0000994E74FF00008C14690E7A1
:102FC000009A0AB1002295E7B8F1000F92D1B4E758
:102FD0004A463946204607F0DFFD94E713F0200FFC
:102FE00004D023F0200323830220AEE70020ACE7C7
:102FF0002FAD000008B504464FF02002EFF3118317
:1030000082F31288BFF36F8F04F002F9204608F0B4
:10301000EBFB034807F035FD00F0E2FFFCE700BFE3
:10302000E8D9000004F05CB938B505460B4C00E067
:1030300010340B4B9C420FD263685B79002BF7D0A6
:103040002946204608F02BFA0028F1D023681B6897
:10305000294620469847EBE738BD00BFE0D3000083
:1030600000D4000070B506460D46084C04E02A4620
:103070003146204698471034054B9C4204D22368C1
:103080009B69002BF3D1F6E770BD00BFE0D30000D1
:1030900000D400002DE9F041074605460AE007EAA2
:1030A0000807144B03EB06135B68042219682046DB
:1030B00000F0ACFAD5B195FAA5F6B6FA86F60D4C45
:1030C00004EB06140123B3406FEA030825EA030565
:1030D000237B002BEED03301064AD3581B69002B0B
:1030E000DDD0204698470028E4D1D8E73846BDE82F
:1030F000F08100BFE0D300002DE9F04180460F468B
:10310000204BBFF35B8F53E8005F6A1C43E800214C
:103110000029F8D1BFF35B8F002D2FD11A4C002668
:1031200007E0636804221968204600F06FFA013650
:103130001034164B9C4213D2237B002BF8D023680B
:10314000DB680BB12046984723681B69002BE8D049
:10315000204698470028E4D00123B3401D43E6E70A
:10316000B8F1000F0BD055B12846FFF793FF054685
:10317000002FF8D00A2008F098F9F4E70025284637
:10318000BDE8F08138090020E0D3000000D4000041
:1031900008B5064B186018B1054B1B68092B00DCFD
:1031A00008BD044805F0AAFFFAE700BF2C0900207B
:1031B000340900208002002008B5024805F09EFF77
:1031C00008BD00BF8002002030B589B000220F4941
:1031D0000F4809F013FF0F4D00220023CDE906230D
:1031E000002404940E2303930294019400940A4B48
:1031F0004FF440720949284609F005FD0849284660
:1032000005F0ECFD204609B030BD00BFB93100002B
:10321000480700209002002065350000801600203D
:1032200014DA0000014B53F82000704730DA000038
:1032300048B108B5054A1060054B1960084600F012
:10324000C1FC002008BD6FF0150070473000002061
:103250002809002008B5054B1B781BB1034B012240
:103260001A7008BD024805F049FFF7E76F16002005
:10327000800200200D4BBFF35B8F53E8001F01312C
:1032800043E80012002AF8D1BFF35B8F00B9704702
:10329000074BBFF35B8F53E8001F013943E800126F
:1032A000002AF8D1BFF35B8FF1E700BF300900209F
:1032B00034090020064B00200146BFF35B8F53E822
:1032C000000F43E80012002AF9D1BFF35B8F70476B
:1032D0003009002038B5FFF7EDFF0546094C00E046
:1032E0001034094B9C420BD263685B79002BF7D0FA
:1032F00023685B68002BF3D0294620469847EFE708
:1033000038BD00BFE0D3000000D40000034B1868B4
:103310000028D4BF00200120704700BF30090020E2
:1033200010B5044C0449204607F008FF034B1C600D
:1033300010BD00BFE00100201CDA000024090020BD
:1033400008B50023064A1370064A1360064A136044
:103350004FF400410548FFF76BFFFFF7E1FF08BDA1
:10336000701600203009002034090020A3B40000AA
:1033700008B50146014808F0AEF808BDE00100209C
:1033800008B5024807F0BEFF08BD00BFE0010020FD
:1033900008B50146024B186808F0A3F808BD00BF45
:1033A0002409002008B5024808F09FF808BD00BFB6
:1033B000E001002010B582B000220023CDE90023F7
:1033C000284B187808B902B010BD684608F0A5F877
:1033D000044688B1244BBFF35B8F53E8001F0139CB
:1033E00043E80012002AF8D1BFF35B8F2046FFF7B5
:1033F0001BFE2046FFF7CCFFFFF788FF58B91B4A9A
:103400001368516813F57A7341F10001136051603C
:10341000FFF7C8FFD7E709F0E1FD4A0142EAD062B1
:1034200043011B1A62EB0102920042EA93729B0075
:103430001B1842EB0102D20042EA5372C3F310336D
:1034400043EA4243D20B0948016840685B1A62EBC9
:10345000000240F2E9318B4272F10002CFD3FFF754
:1034600039FFCCE76F160020340900204007002008
:103470000F4B1B7803B1704710B500210120FFF7F7
:103480003BFE0C4C00E010340B4B9C4208D26368AE
:103490005B79002BF7D023689B6820469847F2E7BA
:1034A000FFF788FF0028FBD1014B01221A7010BDE5
:1034B00070160020E0D3000000D4000010B582B0E8
:1034C0001B4BBFF35B8F53E8002F511C43E80010E8
:1034D0000028F8D1BFF35B8F164B1B7863B9164BEE
:1034E0001B68BBB1C2B1092A14D1144809F092FD7E
:1034F000134805F003FE0DE04FF02003EFF31184B5
:1035000083F31288BFF36F8FFFF754FF84F31188A2
:10351000BFF36F8F02B010BD00220023CDE900235E
:103520004FF400420023054806F0DCFBF2E700BF41
:1035300034090020701600202C09002048070020C4
:103540008002002010B50446044B1B689847A06019
:103550002146034807F0E5FF10BD00BF3000002002
:10356000E00100202DE9F04100210846FFF7C4FDED
:10357000804650B140F26766002709F0B5FD154B53
:103580001858FFF705FE002515E04FF0FF364FF005
:10359000FF37F2E74046FFF77DFD804670B94FF0F8
:1035A000FF364FF0FF3709E02C4632463B460A48CB
:1035B00005F0CCFD2546B8F1000FEBD1FFF7FAFE80
:1035C00004460028F6D1002DEED000210846FFF772
:1035D00049FDEAE708000000800200200248034B92
:1035E000C01AC008704700BFE0D3000050D30000ED
:1035F00010B50C46FFF7F2FFA04203D9024B53F877
:10360000340010BD0020FCE750D3000008B5094B82
:10361000C31A1B110133D0F804C08CF8043043687E
:103620009A7143681960436801225A71FFF712FECC
:1036300008BD00BFE0D3000000B589B00592069335
:103640000023079362B1074A0C9B02930B9B0193E3
:103650000A9B009305ABFFF791F909B05DF804FBF5
:103660000022F1E733B500002DE9F04F8BB004AF35
:1036700005461E468846C1F34A24002C00F0898086
:1036800091460022FA603A617A6104230293FB18A2
:1036900001930A23009307F10C0321464846FFF7E4
:1036A0006DF9B0F5006F58D3D9F804106D460023BA
:1036B0003B7302237B738AB004AC14F1100217D061
:1036C00012201AB1042801DD3B4B636100233B70DB
:1036D00002237B70CAB10346082800DDA1610C2BD0
:1036E00002DD40F2FF73E36104F1200300210AE0F0
:1036F0006FF00040E5E701F118063E4416F8186C3B
:1037000003F8016B01310129F5D9112822DD1223BB
:1037100042B10421397300217973B9730121F9731E
:10372000F868206100216FF300016FF341016FF32E
:1037300082016FF3C501022060F38811C3F30A030D
:1037400063F353210023C1F313011C4807F01EFF4C
:10375000AD462DE06FF01B03DAE760F35328C0F3AA
:103760000A0A0AEB1850173020F007008008FFF70C
:10377000FFFD8346B0B104230293FB1801930A2393
:103780000093534600F1100221464846FFF754FFCC
:1037900008E004EB1154173424F00704A008FFF7E5
:1037A000E7FD8346334642462946584607F0D7FE92
:1037B0001C37BD46BDE8F08F50DA000090D3000002
:1037C0000EB400B582B0014603AB53F8042B01934D
:1037D000034801F091FF02B05DF804EB03B07047BD
:1037E000B3B6000030B585B011F0440F05D01A4BC8
:1037F0001C6834B9002005B030BD1849FFF7E0FF60
:10380000F9E7174B1968B2FBF1F1B1FBF4FC154A6B
:10381000A2FB0C32D20A4FF4616E0EFB12CE124B99
:10382000A3FB0E535B0904FB1C114FF47A7C0CFBC9
:1038300001F1B1FBF4F504FB15110CFB01F1B1FB37
:10384000F4F102910195C3EB0311AEEB81010091FC
:103850000649FFF7B5FFCEE74009002090DA0000E7
:103860003C090020C5B3A291898888889CDA0000B1
:1038700061B108B52AB1064A52F8232012B9054AA7
:1038800000E0044A0449FFF79BFF08BD704700BFF2
:103890003CDB0000B8DA0000C0DA00002DE9F0419E
:1038A00005461746069EDDF81C8081B900242EB11E
:1038B000324611492846FFF783FF0444B8F1000F50
:1038C00014D06FB1099B042B13D00C4909E00C4BA9
:1038D000099A53F822200B49FFF772FF0446E6E7E6
:1038E000064942462846FFF76BFF04442046BDE8E0
:1038F000F0810549F5E700BFD8DA0000C8DA00001A
:1039000050DB0000D0DA0000C4DA00002DE9F04FEF
:1039100087B005460C46164605939DF84C8001F08D
:10392000020B01F0010AC1F3C00907F000FEF8B173
:10393000024614492846FFF743FF0746BBF1000F34
:1039400018D142465146284607F073FECDF80C8048
:10395000129B0293119B0193109B0093002332460C
:1039600049462846FFF79AFF384407B0BDE8F08F74
:103970000027E3E7059A21462846FFF733FF07446F
:10398000DFE700BFDCDA000011F0100F0BD108B543
:1039900011F0200F03D00449FFF712FF08BD0349BF
:1039A000FFF70EFFFAE77047B0E00000D8E600002E
:1039B0002DE9F04105460F46164698460699FFF751
:1039C000E3FF0024444505DA24492846FFF7F8FEC2
:1039D0000134F7E7002409E020492846FFF7F0FE0C
:1039E0000BE01F492846FFF7EBFE01340F2C0CDCDF
:1039F000002C02DD14F0070FEED0B442F1D23A5D94
:103A000018492846FFF7DCFEEFE717492846FFF77D
:103A1000D7FE002409E011492846FFF7D1FE0BE04C
:103A200012492846FFF7CCFE01340F2C13DC002C82
:103A300002DD14F0070FEED0B44207D23A5D0C4B12
:103A40009B5C13F0970FEBD12E22E9E70349284640
:103A5000FFF7B6FEE8E7BDE8F08100BFD4DA00006A
:103A6000E8DA0000E0DA0000ECDA0000F0DA00004A
:103A7000FDE600002DE9F04184B004469DF82C508D
:103A80000C9F0E9E95B9012B1ED019484FF00008CF
:103A900027B13B462246174906F096FFC6B905BB3B
:103AA000204607F0F9FD04B0BDE8F08103950A98BF
:103AB0000290019300920B4600220F992046FFF7D7
:103AC00025FF80460C48E3E70B484FF00008DFE78E
:103AD0000F9B0093434632460D99204607F0C1FDE7
:103AE000DDE72A460F99204607F0AFFDD8E700BF73
:103AF000EBB60000F9560000B3B600002DE9F04324
:103B000087B006460C469046D1F808900F88C7F358
:103B100082170878C0F3C2004B6833B11249591AB2
:103B200041F3CF0100291ADA0023214651F8105B36
:103B3000C5F34A256288C2F30B12481905B9002162
:103B4000CDF8148004920390029101970022009214
:103B500049463046FFF78EFF07B0BDE8F083FFF718
:103B600047FD0346E1E700BF50D3000070B582B0C7
:103B70000446056842F20F738B4228BF0B460E4A7B
:103B80000521684606F0D6FA064663685B680B2294
:103B90000A49284607F040FD63685B68324669467B
:103BA000284607F039FD63685B681B2204492846F4
:103BB00007F032FD02B070BD2CD7000010DB000012
:103BC000F4DA0000074B01221A6004E04008054ABD
:103BD00013685B001360044B9842F7D8034B1860DE
:103BE000704700BF3C09002040420F004009002000
:103BF000034B01221A70034B034A1A60704700BF3F
:103C0000711600206C09002070090020014B19601A
:103C1000002070475809002008B518B9074B00224A
:103C20001A7008BD064B1B7823B141F2883008F0AA
:103C30004CFFF6E7052007F067FDF2E7711600205C
:103C40007216002038B504460A4B01221A700A4B3E
:103C50001B782BB938BD651E2046FFF7DDFF2C46CB
:103C6000002004F0A9FD0028F4D0024B1B78002BA3
:103C7000F1D1EFE77116002072160020F8B5064664
:103C80000D4604270DE02A463146002004F02CFDA5
:103C9000044614E03846FFF7D5FFDCB9114B1B781A
:103CA000C3B1114B1B78002BEDD104F095FD2A46D2
:103CB0003146002004F018FD044604F099FD002C64
:103CC000E8D1084B1B78002BE7D0013F3846FFF7BF
:103CD000A3FFE2E714B9034B1B7803B92C46204637
:103CE000F8BD00BF711600207216002008B5034B06
:103CF00001221A70024807F0CFFC08BD721600209E
:103D000090DB000008B50248FFF730FF08BD00BF98
:103D100090DB000010B50C46044B1868FFF782FAE0
:103D200003460F2221460248984710BD580900203B
:103D300090DB000070B506460D46002405E0315DBD
:103D4000044883685B6898470134AC42F7D328463F
:103D500070BD00BFA8D10000014B19600020704762
:103D6000A009002008B5034B01221A70024807F091
:103D700093FC08BD73160020DCDB000008B5024888
:103D8000FFF7F4FE08BD00BFDCDB000010B50C46F9
:103D9000044B1868FFF746FA03460F2221460248F3
:103DA000984710BDA0090020DCDB000008B50248E0
:103DB00006F018F808BD00BFECDB0000B0F5680F96
:103DC00017D00CD840F6BA63984214D0B0F5683FCB
:103DD00013D03A2801D00120704700207047094BCA
:103DE00098420CD0084B984201D001207047002027
:103DF0007047002070470020704700207047002067
:103E0000704700BF3A00003A2C5F5CA9E8B108B5E2
:103E10004268B2F5683F07D00F498A421AD000685D
:103E200005F02EF9002008BD03680022BFF35B8F68
:103E300053E8001F012903D143E800200028F7D1EF
:103E4000BFF35B8F04D11046EDE76FF4E04070479D
:103E50000248E8E70248E6E72C5F5CA9E98FFFFF2C
:103E6000EA8FFFFF30B308B54268B2F5683F0CD067
:103E700012498A421CD000684FF0FF324FF0FF33E6
:103E800005F07AF888B10E480FE003680122BFF30D
:103E90005B8F53E8001F002903D143E8002000286E
:103EA000F7D1BFF35B8F01D1002008BD0448FCE7C8
:103EB0000448FAE76FF4E040704700BF2C5F5CA94C
:103EC000E98FFFFFEA8FFFFF10B50446B0B16368CA
:103ED000B3F5683F11D0B3F5680F0ED00D4A934289
:103EE0000BD013F4686F0ED1236800221A605A6059
:103EF0009A60DA601A61074B636010BD064B5B681D
:103F000006489847E3E72168054808F021FE0023AA
:103F10002360F0E72C5F5CA96C010020F4DB00005B
:103F2000A40E002010B5044668B36068B0F5683F81
:103F300028D0B0F5680F25D0174B984228D0FFF74E
:103F40003DFFC0B14FF0FF324FF0FF332146134821
:103F500004F0F0FE08B923681BB9114B5B681148E7
:103F60009847236800221A605A609A60DA601A61E2
:103F70004FF468636360206808F089FE636843F06B
:103F80003A03636010BD064B5B6807489847CCE76F
:103F90002368002BD3D1D5E72C5F5CA9A40E0020A9
:103FA0006C0100201CDC0000F4DB000008B540239D
:103FB00014220449044808F0BDFD0449044805F0F2
:103FC00083FF08BDA4090020A40E00204CDC0000E3
:103FD00060DC0000014910220A60704710ED00E02B
:103FE00072B6404080F31188BFF36F8FBFF34F8FDD
:103FF00030BF62B6BFF36F8F704700BF72B64940E3
:1040000081F31188BFF34F8F20BF80F3118862B610
:10401000704700BF2DE9F04182B000AF0446D0F8F0
:1040200000E0D0F804C086686D468AB06B4613F194
:10403000100200F0EB8014218AB10846042903DD48
:10404000DFF8F881C3F81480082801DDC3F818E010
:104050000C2801DDC3F81CC0102800DD1E621329E6
:1040600040F3D7804FF0140C3AB10521397100218B
:104070007971B971F9717868186100216FF30001E5
:104080006FF341016FF382016FF3C501012363F305
:104090008811CCF30A0C6CF353216FF31F510023EA
:1040A0006748FFF7E1FAAD46D4F80CE0D4F810C049
:1040B00066696D468AB06B4613F1100200F0AC8061
:1040C00014218AB10846042903DDDFF87881C3F89A
:1040D0001480082801DDC3F818E00C2801DDC3F8BE
:1040E0001CC0102800DD1E62132940F398804FF099
:1040F000140C3AB10521397100217971B971F97146
:104100007868186100216FF300016FF341016FF3CC
:1041100082016FF3C501012363F38811CCF30A0C0C
:104120006CF353216FF31F5100234548FFF79CFAAE
:10413000AD46E6696D4688B06B4613F1100271D04A
:104140000C214AB10846042903DDDFF8FCC0C3F89E
:1041500014C0082800DD9E610B2966DD4FF00C0CB1
:104160003AB10321397100217971B971F971786817
:10417000186100216FF300016FF341016FF38201B9
:104180006FF3C501012363F38811CCF30A0C6CF3C0
:1041900053216FF31F5100232948FFF765FAAD46FD
:1041A000A46988B06B4613F1100241D00C213AB1DA
:1041B0000846042901DD254D5D61082800DD9C616C
:1041C0000B2938DD0C243AB10321397100217971B2
:1041D000B971F9717868186100216FF300016FF30C
:1041E00041016FF382016FF3C501012363F388116D
:1041F000C4F30A0464F353216FF31F5100231048E2
:10420000FFF732FA0837BD46BDE8F0816FF0004194
:1042100012E76FF01B0C27E76FF0004151E76FF0DA
:104220001B0C66E76FF000418BE76FF01B0C97E704
:104230006FF00041BBE76FF01B04C4E770DC0000C7
:10424000B8D30000A0DC0000D0DC0000E0DC0000FF
:10425000002807DB00F01F02400901239340024AB7
:1042600042F82030704700BF00E100E000280CDB7E
:1042700000F01F024009012393402030034A42F816
:104280002030BFF34F8FBFF36F8F704700E100E026
:10429000002808DB4901C9B200F1604000F5614027
:1042A00080F80013704700F00F004901C9B2014BBC
:1042B0001954704714ED00E04209054B53F82220D1
:1042C00000F01F00012303FA00F01040704700BF08
:1042D00000E100E030BFFFF7FDBF00BF08B50B4BAA
:1042E0000B4A22F07F029A60BFF34F8FBFF36F8FAC
:1042F000D3F8882022F47002C3F8882004F052FC1E
:1043000005F030FB00F0EAFF04F0B8FC00ED00E03F
:10431000000000000A4A9368C3F8A8000949096828
:10432000C3F8AC1008494B6843F080534B6000233E
:1043300083F31188BFF36F8F9368D3F8AC00704795
:104340005414002050E5000000ED00E016498A6892
:104350004FF030001044EFF3098C80E8F01F20206C
:1043600080F31288BFF36F8F104F4FF000664A69D9
:104370008A603E604FF0A404141920680C4C206041
:10438000D2F8A8000023C2F8A83080F3118804B541
:10439000104601F065F8BDE8044002F1300090E8F5
:1043A000F01F8CF3098870475414002004ED00E0DE
:1043B000C00E00201EF0040F0CBFEFF30880EFF3D7
:1043C0000980816911F8021C0229FFD001B507F0AC
:1043D000C2F901BD10B4A2F120040E4942F8081C34
:1043E00021F0010142F8081C42F8203C019B42F8F0
:1043F0001C3C029B42F8183C039B42F8143C4FF0D3
:10440000807342F8043C04650023C0F8A83010BC57
:10441000704700BF552E0000104B9B68BBB110F1D8
:10442000160F0BD0D3F89420A2F1400C844510D87D
:10443000824210D98A4207D800207047D3F89420CE
:104440008A4201D800207047D3F8940070470020BA
:104450007047002070470020704700BF54140020B0
:1044600008B50D4614460A4A9060D0F8A420094BBE
:104470001A6000F0F5FF204685F30988002163B635
:1044800081F31188BFF36F8F00220023FEF7E2FC57
:1044900054140020C00E002001B5EFF30580A0F1F8
:1044A00010004FEAC0000449014409C99847BDE81B
:1044B0000140024908470000D0D1000041450000FA
:1044C00038B50446084D2A46084908F0EFFD08486B
:1044D000431E2B44B3FBF0F3064A002100FB0340CC
:1044E00008F0F2FD38BD00BF0000000044D4000019
:1044F000010000000400000070B505460C480D4A9C
:104500000244013AB2FBF0F20B4B0C4C1C44013C50
:10451000B4FBF3F404FB03F300FB02340E1B304640
:10452000FFF7CEFF083EC5F8A46004F1080070BD97
:104530000100000000000000040000000400000072
:10454000044B99685869884203D003494FF0805260
:104550000A6070475414002004ED00E081690D4B9F
:104560005A6942F480725A61BFF34F8FBFF36F8F65
:1045700031F8021C5A6922F480725A61BFF34F8FDE
:10458000BFF36F8F4DF60273994201D00020704740
:104590000120704700ED00E010B588B000241C70C9
:1045A00002F07F44B4F17F4F32D102F00C04082CAA
:1045B00005D012F0080F28D0084608B010BD154BE2
:1045C000079302238DF8043000248DF805408DF800
:1045D00006408DF80740019B0693214664F30001D5
:1045E00064F3410164F3820164F3C501012363F3C1
:1045F0008811082363F3532164F31F51234606AA4D
:104600000548FFF731F82046D7E701221A70D4E7B2
:104610000020D2E710DD0000B8D300002DE9F04102
:10462000ACB000AF054688461446B94BFB61022387
:104630003B7100237B71BB71FB717A68BA611946CB
:1046400063F3000163F3410163F3820163F3C50186
:10465000012262F38811082262F3532163F31F5190
:1046600007F11802AB48FEF7FFFFAB4B9B6A13F450
:10467000805F2BD11626A84B9B6A13F4006F47D19D
:10468000A54B9B6A13F4007F64D1A34B9B6A13F480
:10469000806F40F0D380A04B9B6A13F4807F40F082
:1046A000EF809D4B9B6A13F4005F40F00D819A4AA6
:1046B000936A43F47F4393620121284607F06DF823
:1046C00020703046B037BD46BDE8F081934B7B6328
:1046D00002233B7100237B71BB71FB717A683A63E3
:1046E000194663F3000163F3410163F3820163F34D
:1046F000C501012262F38811082262F3532163F39A
:104700001F5107F130028348FEF7AEFF1726B2E7CC
:10471000834BFB6402233B7100237B71BB71FB71F4
:104720007A68BA64194663F3000163F3410163F3E5
:10473000820163F3C501012262F38811082262F34A
:10474000532163F31F5107F148027248FEF78CFFB3
:10475000182695E7734B7B6602233B7100237B7120
:10476000BB71FB717A683A66194663F3000163F323
:10477000410163F3820163F3C501012262F38811F1
:10478000082262F3532163F31F5107F1600261486D
:10479000FEF76AFF604B986B9B6A13F4004F49D099
:1047A0006E4688B06B4613F1100211D00C2152B145
:1047B0008C46042903DDDFF870E1C3F814E0BCF196
:1047C000080F08DD98610B2931DD4FF00C0C04E077
:1047D0006FF00041EBE76FF01B0C3AB10321397128
:1047E00000217971B971F9717868186100216FF34E
:1047F00000016FF341016FF382016FF3C5010123E3
:1048000063F38811CCF30A0363F353216FF31F5151
:1048100000234048FEF728FFB546B8F1000F0BD043
:104820003D4A936A23F40043936219262DE76FF003
:104830001B0CD2E7192628E7192626E73B4BFB6716
:1048400002233B7100237B71BB71FB717A68BA67ED
:10485000194663F3000163F3410163F3820163F3DB
:10486000C501012262F38811082262F3532163F328
:104870001F5107F178022748FEF7F6FE1A260AE7CD
:104880002B4BC7F8AC3002233B7100237B71BB710B
:10489000FB717A68C7F8A820194663F3000163F337
:1048A000410163F3820163F3C501012262F38811C0
:1048B000082262F3532163F31F5107F1A802154840
:1048C000FEF7D2FE1B26F2E61A4BC7F894300223FD
:1048D0003B7100237B71BB71FB717A68C7F8902034
:1048E000194663F3000163F3410163F3820163F34B
:1048F000C501012262F38811082262F3532163F398
:104900001F5107F190020348FEF7AEFE1C26CEE6CB
:104910003CDD0000B8D3000000ED00E054DD0000F5
:1049200068DD00007CDD000098DD0000B0DD0000E7
:10493000CCDD0000E4DD000000B5ADB0964B079380
:1049400002238DF8043000238DF805308DF80630F1
:104950008DF80730019A0692194663F3000163F35C
:10496000410163F3820163F3C501012262F38811FF
:10497000082262F3532163F31F5106AA8748FEF70A
:1049800073FE874B9B6A13F0007F26D11D20844B5A
:104990009B6A13F0807F45D1814B9B6A13F4002FF3
:1049A00065D17F4B9B6A13F4802F40F085807C4B50
:1049B0009B6A13F4003F40F0A480794B9B6A13F488
:1049C000803F40F0C380764A936A6FEA03436FEA00
:1049D000134393622DB05DF804FB724B0D930223D9
:1049E0008DF8043000238DF805308DF806308DF8F1
:1049F0000730019A0C92194663F3000163F34101F9
:104A000063F3820163F3C501012262F38811082276
:104A100062F3532163F31F510CAA6048FEF724FE92
:104A20001E20B4E7604B139302238DF8043000235B
:104A30008DF805308DF806308DF80730019A129206
:104A4000194663F3000163F3410163F3820163F3E9
:104A5000C501012262F38811082262F3532163F336
:104A60001F5112AA4D48FEF7FFFD1F2094E74F4B40
:104A7000199302238DF8043000238DF805308DF84A
:104A800006308DF80730019A1892194663F3000139
:104A900063F3410163F3820163F3C501012262F311
:104AA0008811082262F3532163F31F5118AA3B486F
:104AB000FEF7DAFD212074E73D4B1F9302238DF8AA
:104AC000043000238DF805308DF806308DF807305E
:104AD000019A1E92194663F3000163F3410163F3E7
:104AE000820163F3C501012262F38811082262F397
:104AF000532163F31F511EAA2848FEF7B5FD22205B
:104B000055E72C4B259302238DF8043000238DF8B4
:104B100005308DF806308DF80730019A2492194639
:104B200063F3000163F3410163F3820163F3C501A1
:104B3000012262F38811082262F3532163F31F51AB
:104B400024AA1648FEF790FD232036E71A4B2B9334
:104B500002238DF8043000238DF805308DF80630DF
:104B60008DF80730019A2A92194663F3000163F326
:104B7000410163F3820163F3C501012262F38811ED
:104B8000082262F3532163F31F512AAA0348FEF758
:104B90006BFD242017E700BF14DE0000B8D300002F
:104BA00000ED00E02CDE000040DE00005CDE0000D6
:104BB0007CDE0000A4DE0000C0DE000000B589B08D
:104BC00000230B70124A079202228DF804208DF800
:104BD00005308DF806308DF80730019A0692194697
:104BE00063F3000163F3410163F3820163F3C501E1
:104BF000012262F38811082262F3532163F31F51EB
:104C000006AA0448FEF730FD09B05DF804FB00BFBA
:104C1000ECDE0000B8D3000090B583B000AF0F29E0
:104C200023DC2F4C103900233B7102237B718AB0A7
:104C3000EC461CF110021AD0122022B1042802DD29
:104C4000284BCCF8143000233B7002237B70E2B178
:104C50000346082801DDCCF818400C2B01DDCCF808
:104C60001C100CF1200300210DE01F4CDAE76FF05F
:104C70000040E2E701F1080404EB070E1EF808EC1F
:104C800003F801EB01310129F4D9112824DD1223A5
:104C90004AB10421397100217971B9710121F97189
:104CA0007868CCF8100000216FF300016FF3410128
:104CB0006FF382016FF3C501012060F38811C3F324
:104CC0000A0363F353216FF31F5100230748FEF7D4
:104CD000CBFC0C37BD4690BD6FF01B03D8E700BF7F
:104CE00010DF000044DF000028DF0000B8D3000020
:104CF0002DE9F043A7B000AF044688461546B94BEE
:104D0000FB6102233B7100237B71BB71FB717A68ED
:104D1000BA61194663F3000163F3410163F3820151
:104D200063F3C501012262F38811082262F3532163
:104D300063F31F5107F11802AB48FEF795FCAB4B2C
:104D40009B6A13F0100F41D11026A84B9B6A13F0F9
:104D5000080F5DD1A54B9B6A13F0020F7AD16FF05B
:104D60001509A24B9B6A13F0010F40F0EA809F4B9C
:104D70009B6A13F0200F40F006819C4B9B6A13F056
:104D8000100F04D1994B9B6A13F0020F05D0974B7B
:104D90005B6813F4006F40F01A81944B9B6A13F028
:104DA000200F04D0914A536A23F4005353628F4A70
:104DB000936A43F0FF0393620121204606F0EDFC65
:104DC000287030469C37BD46BDE8F083884B7B6336
:104DD00002233B7100237B71BB71FB717A683A63DC
:104DE000194663F3000163F3410163F3820163F346
:104DF000C501012262F38811082262F3532163F393
:104E00001F5107F130027848FEF72EFC11269CE76F
:104E1000784BFB6402233B7100237B71BB71FB71F8
:104E20007A68BA64194663F3000163F3410163F3DE
:104E3000820163F3C501012262F38811082262F343
:104E4000532163F31F5107F148026748FEF70CFC3A
:104E500012267FE7684B7B6602233B7100237B7140
:104E6000BB71FB717A683A66194663F3000163F31C
:104E7000410163F3820163F3C501012262F38811EA
:104E8000082262F3532163F31F5107F16002564871
:104E9000FEF7EAFB554BD3F834909B6A13F0800F72
:104EA00049D06E4688B06B4613F1100211D00C2128
:104EB00052B10846042903DDDFF840C1C3F814C02D
:104EC000082809DDC3F818900B2931DD4FF00C0CD0
:104ED00004E06FF00041EBE76FF01B0C3AB10321E7
:104EE000397100217971B971F971786818610021FF
:104EF0006FF300016FF341016FF382016FF3C5019E
:104F0000012363F38811CCF30A0363F353216FF396
:104F10001F5100233448FEF7A7FBB546B8F1000F38
:104F20000DD0324A936A23F080039362132618E768
:104F30006FF01B0CD2E76FF01509132611E713264B
:104F40000FE72F4BFB6702233B7100237B71BB7183
:104F5000FB717A68BA67194663F3000163F3410194
:104F600063F3820163F3C501012262F38811082211
:104F700062F3532163F31F5107F178021A48FEF7D9
:104F800073FB1426F3E61F4BC7F8943002233B71E2
:104F900000237B71BB71FB717A68C7F890201946BA
:104FA00063F3000163F3410163F3820163F3C5011D
:104FB000012262F38811082262F3532163F31F5127
:104FC00007F190020848FEF74FFB1526D5E621466B
:104FD0004846FFF721FA00283FF4DFAE80F3098846
:104FE0000226DAE658DF0000B8D3000000ED00E04A
:104FF00070DF000068DD0000A4DF0000BCDF0000FF
:10500000D4DF0000E4DD0000F0B59BB000AF064641
:105010000D46804BFB6102233B7100247C71BC7107
:10502000FC717B68BB61214664F3000164F34101BC
:1050300064F3820164F3C501012363F3881108233B
:1050400063F3532164F31F51234607F1180272489A
:10505000FEF70AFB2C70714BDC6A14F002040CD1D1
:105060006E4BDB6A002B2ADB6C4BDC6A14F080444D
:1050700046D120466C37BD46F0BD694B7B660223A6
:105080003B7100247C71BC71FC717B683B662146DE
:1050900064F3000164F3410164F3820164F3C50128
:1050A000012363F38811082363F3532164F31F5131
:1050B000234607F160025848FEF7D6FAD9E7594B64
:1050C000FB6402233B7100237B71BB71FB717A6827
:1050D000BA64194663F3000163F3410163F382018B
:1050E00063F3C501012262F38811082262F35321A0
:1050F00063F31F5107F148024748FEF7B5FAB8E7D6
:10510000494B7B6302233B7100237B71BB71FB71B5
:105110007A683A63194663F3000163F3410163F36C
:10512000820163F3C501012262F38811082262F350
:10513000532163F31F5107F130023748FEF794FA09
:105140003046FFF70BFA002840D034686D4688B02F
:105150006B4613F110020FD00C214AB10846042906
:1051600003DDDFF8C8C0C3F814C0082807DD9C6160
:105170000B2928DD0C2404E06FF00041EDE76FF00F
:105180001B043AB10321397100217971B971F971A8
:105190007868186100216FF300016FF341016FF32C
:1051A00082016FF3C501012363F38811C4F30A037D
:1051B00063F353216FF31F5100231748FEF754FA8E
:1051C000AD46346855E76FF01B04DAE7134B9B6A72
:1051D00013F0FF0F0FD1114B9C6A14F47F4411D1CF
:1051E0000E4B9B6AB3F5803FFFF443AF3046FFF7A9
:1051F000A3FB04463DE72A4601213046FFF778FD30
:10520000044636E72A4601213046FFF707FA0446EE
:105210002FE700BFF4DF0000B8D3000000ED00E08E
:105220000CE0000030E0000040E0000060E0000022
:1052300030B58BB01F4B5D68C5F30805002383F3C1
:105240001188BFF36F8F0DF12603FFF7A5F9044610
:105250000DF12702294606F0A2FA9DF827300BB17E
:105260000BB030BD05460DF1040C20686168A268E2
:10527000E368ACE80F0020696169A269E369ACE802
:105280000F009DF826304BB1089BC3F308025AB9B2
:105290006FEA53236FEA4323089305E0089B23F446
:1052A000FF7323F00103089301A9284606F047FA8B
:1052B000D6E700BF00ED00E0024A536943F0100357
:1052C0005361704700ED00E0EFF30880EFF30981D0
:1052D00001B57246FFF7ACFF01BD00BF002206E03A
:1052E00003F00F030949194420230B7601322F2ABA
:1052F0000ADC53B2002BF3DB03F1604303F5614397
:10530000202183F80013F1E7704700BFFCEC00E0B8
:10531000002013490870002080F31488BFF36F8FBA
:10532000FDF780FE00200F490860BFF34F8F0E4845
:1053300080F3088800F042F8202080F311880B48A1
:105340004FF40461401880F30988EFF314800221C0
:10535000084380F31488BFF36F8FFEF7BFFF000090
:105360007816002094ED00E080270020C01900206E
:10537000BFF34F8F0549CA6802F4E062044B134340
:10538000CB60BFF34F8F00BFFDE700BF00ED00E033
:105390000400FA05084BD3F89000C0F3072000235F
:1053A00006E0054AC2F898300021C2F8A010013387
:1053B0008342F6DB704700BF00ED00E010B572B627
:1053C000002484F31388FFF7E5FF234608E003F188
:1053D00020010E4A4FF0FF3042F821000133DBB2CA
:1053E000072BF4D9002308E003F16001074A4FF0CE
:1053F000FF3042F821000133DBB2072BF4D962B64B
:10540000BFF34F8FBFF36F8F10BD00BF00E100E00F
:1054100008B50A4B9B68834202D004F06BFA08BDC2
:10542000EFF30583002BF8D0054B5A6842F0805209
:105430005A605A6A22F400425A62EEE7541400207D
:1054400000ED00E008B5034B034A0121034806F0D4
:10545000FEF908BD00000420000000207CE00000F0
:1054600008B5D0F89430403B0448036040234360C3
:10547000034B8360012106F0EEF908BDC40E002045
:1054800000000B15084AC2F898000B6823F01F03B0
:10549000034343F01003C2F89C308B6843F00103D0
:1054A000C2F8A030704700BF00ED00E0F0B583B057
:1054B00000AF0446072805D8FFF7E4FF20460C3765
:1054C000BD46F0BD6D4688B06B4613F110022FD07B
:1054D0000C213AB10846042901DD184E5E61082806
:1054E00000DD9C610B2926DD0C243AB103213971C2
:1054F00000217971B971F9717868186100216FF331
:1055000000016FF341016FF382016FF3C5010123C5
:1055100063F38811C4F30A0464F353216FF31F513A
:1055200000230748FEF7A0F8AD466FF01500C6E768
:105530006FF00041CDE76FF01B04D6E78CE0000070
:10554000B0D300002DE9F04782B000AF8146884615
:105550009A46164600250FE06FF0004124E06FF0F8
:105560001B042DE02146F0B206F052F9064610F178
:10557000160F47D001360135454543DA05EB4504A2
:1055800009EB84046268002AF5D0BAF1000FE9D073
:10559000204606F02CF90028E4D16E4688B06B4610
:1055A00013F11002D8D00C213AB10846042901DDCC
:1055B000174C5C61082800DD9D610B29CFDD0C24B0
:1055C0003AB10321397100217971B971F9717868A3
:1055D000186100216FF300016FF341016FF3820145
:1055E0006FF3C501012363F38811C4F30A0363F366
:1055F00053216FF31F5100230648FEF735F8B546D7
:105600006FF0150630460837BD46BDE8F08700BF8D
:10561000B4E00000B0D3000010B5034C01232278A1
:10562000FFF790FF207010BD7416002008B500230E
:10563000094A1278FFF786FF10F1160F0AD00346C9
:1056400006E0064AC2F898300021C2F8A0100133E3
:10565000072BF6DD08BD00BF7416002000ED00E04A
:10566000044B0522C3F89420BFF34F8FBFF36F8F15
:10567000704700BF00ED00E0BFF35F8F024B0022D8
:10568000C3F89420704700BF00ED00E038B50E4B22
:105690001D68082D15D8FFF7EFFF002409E00A4B1D
:1056A000596804EB4402930019442046FFF7EAFED0
:1056B0000134A542F3D8054B1D70FFF7D1FF002040
:1056C00038BD4FF0FF30FBE7D8E000007416002033
:1056D00008B5024B1B689847002008BDD00E00207B
:1056E000034B1860034A937843F0020393707047AA
:1056F000D00E00205400002030B587B00D46114672
:1057000000240094019402940394049405940222CA
:105710008DF80220044A0192049005951A466846C5
:1057200004F034FD07B030BD5FB8000008B506498D
:1057300021F00701C1F1005202F58022034805F073
:10574000E1F9002008BD00BFD3270020C0270020BA
:1057500008B501230A4AC2F840354FF08042C2F82A
:10576000783506F087F820B14FF080430122C3F866
:1057700038264FF080430122C3F88025002008BD61
:1057800000E0014030B108B5034B800143F0010354
:10579000984708BD704700BF80D40000004870479C
:1057A000280F0020034BC01A8010034B03FB00F0AE
:1057B000704700BFE80E0020B76DDBB638B5054670
:1057C0000C46FFF7EFFF01464022034806F0F5F8CC
:1057D00001462846A04738BD6CD1000030B583B0E3
:1057E00005460C46FFF7DEFF0146402300932346A3
:1057F000054A064806F0FBF8011E01DB03B030BD88
:105800002846A047FAE700BF37BA00006CD1000075
:1058100008B510B101280DD008BD0021084806F0D8
:1058200055F8836813F0070FF6D10021044806F0FD
:10583000B2F8F1E70121024806F0ADF8ECE700BF4D
:105840006CD1000010B582B04FF02003EFF311844B
:1058500083F31288BFF36F8F144A136843F0020179
:10586000116013F0010F09D1002384F31188BFF3F5
:105870006F8FB3B906F0E7F802B010BD0DF1070263
:1058800001214FF0804006F005F89DF80730012B0C
:1058900001D00023E9E7FFF781FF06F069F8012353
:1058A000E3E70021024806F076F8E5E7380F00202C
:1058B0006CD1000010B54FF02003EFF3118483F397
:1058C0001288BFF36F8F084A136823F0020111603A
:1058D00013F0010F04D084F31188BFF36F8F10BD54
:1058E00006F0BBF8F7E700BF380F002070B582B0B4
:1058F0000546012807D14FF08043D3F81C3403F04C
:105900000303012B4CD007F067F9044618B9284B64
:105910001B78002B39D14FF02003EFF3118683F36E
:105920001288BFF36F8F012424B94FF08043022205
:10593000C3F8082301AA00214FF0804005F0AAFF18
:1059400020B1019B012B26D0012D24D0FCB1304683
:10595000FEF754FB4FF08043D3F81835002BE9D104
:105960004FF08043D3F80431002BE3D04FF0804355
:105970000022C3F80421D3F804210122C3F818251A
:105980000C49C1F880219A60D4E70026CCE70120B9
:1059900006F06DF8DEE72CB186F31188BFF36F8F48
:1059A00002B070BD4FF080430222C3F80423F7E732
:1059B0007816002000E100E000B585B0CDF800D0F9
:1059C000CDF804D000230293012303936B46074ACA
:1059D00006F029F8002805DB4FF4804200236846D2
:1059E00003F0B4FB05B05DF804FB00BF9BBA0000F8
:1059F00070B5064600220121104605F0BCFE114894
:105A000001F0CCFD104B984219D106F0A3FD002403
:105A1000012C12D82146304605F058FF0546214694
:105A2000304605F060FF094905F08FF9002805DBD5
:105A30000123AB601C44E4B2EAE7002070BD6FF0C4
:105A40000400FBE7115800000000AD0B0CE1000062
:105A500010B50446104B0121BFF35B8F53E8002FB4
:105A600043E800100028F9D1BFF35B8F1AB1631E21
:105A7000012B0DD910BD094805F035FF0849002359
:105A80004B608B60CB6001238B6005F07BF9EEE708
:105A90002046FFF72BFFEDE7E40E00206CD100005D
:105AA000D40E002010B504460A2806D0E1B20648FC
:105AB00083685B689847204610BD034883685B682D
:105AC0000D219847F2E700BFA8D1000010B5044CA3
:105AD0002046FFF705FE2046FDF7B6F910BD00BFD2
